{
  "transactions": [
    {
      "hash": "0xec69435113e6c067d285e0d8f72042d7f39456705115c24d63b0cdaddc292834",
      "transactionType": "CALL",
      "contractName": "HubVotePool",
      "contractAddress": "0x4ee552355d4720a4dce7ff022eb7490575f50567",
      "function": "registerSpoke(uint16,bytes32)",
      "arguments": [
        "1",
        "0x751765ad93a0f056374573b9e0ff7fd4b510fc14ba3be38d7b386e56e69e7d45"
      ],
      "transaction": {
        "from": "0xeac5f0d4a9a45e1f9fdd0e7e2882e9f60e301156",
        "to": "0x4ee552355d4720a4dce7ff022eb7490575f50567",
        "gas": "0x1f978",
        "value": "0x0",
        "input": "0xeb1d6b960000000000000000000000000000000000000000000000000000000000000001751765ad93a0f056374573b9e0ff7fd4b510fc14ba3be38d7b386e56e69e7d45",
        "nonce": "0x1fd",
        "chainId": "0xaa36a7"
      },
      "additionalContracts": [],
      "isFixedGasLimit": false
    },
    {
      "hash": "0x80ca23f736d5bca852437bac3202b512d34203556a1b83c17734243e5f4e3077",
      "transactionType": "CALL",
      "contractName": "HubVotePool",
      "contractAddress": "0x4ee552355d4720a4dce7ff022eb7490575f50567",
      "function": "registerSpoke(uint16,bytes32)",
      "arguments": [
        "10005",
        "0x0000000000000000000000001ae4d4189deec449850e4008e47a5b7a16052d4b"
      ],
      "transaction": {
        "from": "0xeac5f0d4a9a45e1f9fdd0e7e2882e9f60e301156",
        "to": "0x4ee552355d4720a4dce7ff022eb7490575f50567",
        "gas": "0x1f8c2",
        "value": "0x0",
        "input": "0xeb1d6b9600000000000000000000000000000000000000000000000000000000000027150000000000000000000000001ae4d4189deec449850e4008e47a5b7a16052d4b",
        "nonce": "0x1fe",
        "chainId": "0xaa36a7"
      },
      "additionalContracts": [],
      "isFixedGasLimit": false
    }
  ],
  "receipts": [
    {
      "status": "0x1",
      "cumulativeGasUsed": "0xaa2cd7",
      "logs": [
        {
          "address": "0x4ee552355d4720a4dce7ff022eb7490575f50567",
          "topics": [
            "0xcb4fd51bf3a0766e39ffe0f81893291c14a84be4b8da0d352df1fee57f19609f",
            "0x0000000000000000000000000000000000000000000000000000000000000001"
          ],
          "data": "0x0000000000000000000000000000000000000000000000000000000000000000751765ad93a0f056374573b9e0ff7fd4b510fc14ba3be38d7b386e56e69e7d45",
          "blockHash": "0x25074c598def53c2e1db6d1963c0e375c6c749f1bee6e374137392ca874fa133",
          "blockNumber": "0x69c1f3",
          "transactionHash": "0xec69435113e6c067d285e0d8f72042d7f39456705115c24d63b0cdaddc292834",
          "transactionIndex": "0x39",
          "logIndex": "0x4f",
          "removed": false
        }
      ],
      "logsBloom": "0x00000000000000000000000000000000000000000000000000000000000000000000000000000000000000000000000000000000000000000000000000040000000000000000000000000000000004000000000000040000000000000000000000000000000000010000000000000000000000008000000000000000000000000000000000000000000000000000000000000000000000000000000000000000000000000000000000000000000000000000000000000000000000000000000000000080000000000000000000000000000000000000000080000000000040000000000000000000000000000800000000000000000000000000000000000000",
      "type": "0x2",
      "transactionHash": "0xec69435113e6c067d285e0d8f72042d7f39456705115c24d63b0cdaddc292834",
      "transactionIndex": "0x39",
      "blockHash": "0x25074c598def53c2e1db6d1963c0e375c6c749f1bee6e374137392ca874fa133",
      "blockNumber": "0x69c1f3",
      "gasUsed": "0x16df4",
      "effectiveGasPrice": "0x6c5d77fd",
      "from": "0xeac5f0d4a9a45e1f9fdd0e7e2882e9f60e301156",
      "to": "0x4ee552355d4720a4dce7ff022eb7490575f50567",
      "contractAddress": null
    },
    {
      "status": "0x1",
      "cumulativeGasUsed": "0xab9a47",
      "logs": [
        {
          "address": "0x4ee552355d4720a4dce7ff022eb7490575f50567",
          "topics": [
            "0xcb4fd51bf3a0766e39ffe0f81893291c14a84be4b8da0d352df1fee57f19609f",
            "0x0000000000000000000000000000000000000000000000000000000000002715"
          ],
          "data": "0x00000000000000000000000000000000000000000000000000000000000000000000000000000000000000001ae4d4189deec449850e4008e47a5b7a16052d4b",
          "blockHash": "0x25074c598def53c2e1db6d1963c0e375c6c749f1bee6e374137392ca874fa133",
          "blockNumber": "0x69c1f3",
          "transactionHash": "0x80ca23f736d5bca852437bac3202b512d34203556a1b83c17734243e5f4e3077",
          "transactionIndex": "0x3a",
          "logIndex": "0x50",
          "removed": false
        }
      ],
      "logsBloom": "0x00000000000000000000000000000000000000000000000000000000010000000000800000000000000000000000000000000000000000000000000000000000000000000000000000000000000004000000000000000000000000000000000000000000000000010000000000000000000000008000000000000000000000000000000000000000000000000000000000000000000000000000000000000000000000000000000000000000000000000000000000000000000000000000000000000080000000000000000000000000000000000000000080000000000000000000000000000000000000000800008000000000000000000000000000000000",
      "type": "0x2",
      "transactionHash": "0x80ca23f736d5bca852437bac3202b512d34203556a1b83c17734243e5f4e3077",
      "transactionIndex": "0x3a",
      "blockHash": "0x25074c598def53c2e1db6d1963c0e375c6c749f1bee6e374137392ca874fa133",
      "blockNumber": "0x69c1f3",
      "gasUsed": "0x16d70",
      "effectiveGasPrice": "0x6c5d77fd",
      "from": "0xeac5f0d4a9a45e1f9fdd0e7e2882e9f60e301156",
      "to": "0x4ee552355d4720a4dce7ff022eb7490575f50567",
      "contractAddress": null
    }
  ],
  "libraries": [],
  "pending": [],
  "returns": {},
  "timestamp": 1729709993,
  "chain": 11155111,
  "commit": "d908a2c"
}