{
  "transactions": [
    {
      "hash": "0xcb86c0ebb2f6ed7e732a63ee357b908c7370e3d8509257bd48fb2611a3e4ff6b",
      "transactionType": "CALL",
      "contractName": "HubVotePool",
      "contractAddress": "0x1004c781763c70f5f11aa64b0e5b34e1442a3c02",
      "function": "registerSpoke(uint16,bytes32)",
      "arguments": [
        "1",
        "0xbc56d37cda8ce051fa81e3837805b817a93cb3203dd87d06587c7e3892cd68c1"
      ],
      "transaction": {
        "from": "0xeac5f0d4a9a45e1f9fdd0e7e2882e9f60e301156",
        "to": "0x1004c781763c70f5f11aa64b0e5b34e1442a3c02",
        "gas": "0x1f978",
        "value": "0x0",
        "input": "0xeb1d6b960000000000000000000000000000000000000000000000000000000000000001bc56d37cda8ce051fa81e3837805b817a93cb3203dd87d06587c7e3892cd68c1",
        "nonce": "0x215",
        "chainId": "0xaa36a7"
      },
      "additionalContracts": [],
      "isFixedGasLimit": false
    },
    {
      "hash": "0xfa9af52f2f18f34d0114d77d479132c94385b9afb537885598eb594b0005ceb0",
      "transactionType": "CALL",
      "contractName": "HubVotePool",
      "contractAddress": "0x1004c781763c70f5f11aa64b0e5b34e1442a3c02",
      "function": "registerSpoke(uint16,bytes32)",
      "arguments": [
        "10005",
        "0x000000000000000000000000073b3333f39ea46aea1ca1367ba48f5a2c1f336c"
      ],
      "transaction": {
        "from": "0xeac5f0d4a9a45e1f9fdd0e7e2882e9f60e301156",
        "to": "0x1004c781763c70f5f11aa64b0e5b34e1442a3c02",
        "gas": "0x1f8c2",
        "value": "0x0",
        "input": "0xeb1d6b960000000000000000000000000000000000000000000000000000000000002715000000000000000000000000073b3333f39ea46aea1ca1367ba48f5a2c1f336c",
        "nonce": "0x216",
        "chainId": "0xaa36a7"
      },
      "additionalContracts": [],
      "isFixedGasLimit": false
    }
  ],
  "receipts": [
    {
      "status": "0x1",
      "cumulativeGasUsed": "0x100c4b3",
      "logs": [
        {
          "address": "0x1004c781763c70f5f11aa64b0e5b34e1442a3c02",
          "topics": [
            "0xcb4fd51bf3a0766e39ffe0f81893291c14a84be4b8da0d352df1fee57f19609f",
            "0x0000000000000000000000000000000000000000000000000000000000000001"
          ],
          "data": "0x0000000000000000000000000000000000000000000000000000000000000000bc56d37cda8ce051fa81e3837805b817a93cb3203dd87d06587c7e3892cd68c1",
          "blockHash": "0xc95c80ba057222d09c75d0ada49dd9fff9ceed77d47e3e56ec2484447f26ccbd",
          "blockNumber": "0x6ddd52",
          "transactionHash": "0xcb86c0ebb2f6ed7e732a63ee357b908c7370e3d8509257bd48fb2611a3e4ff6b",
          "transactionIndex": "0x76",
          "logIndex": "0x35",
          "removed": false
        }
      ],
      "logsBloom": "0x00000000000000000000000000000000000000000000000000000000000000000000000000000000000000000000000000000000000000000000000000040000000000000000000000000000000000000000000000040000000000000000000000000000000000000000000000000000000000008000000000000000000000000000000000000000000000000000000000000100000000000008000000000000000000000000000000000000000000000000000000000000000000000000000000000080000000000000000000000000000000000000000080000020000040000000000000000000000000000000000000000000000000000000000000000000",
      "type": "0x2",
      "transactionHash": "0xcb86c0ebb2f6ed7e732a63ee357b908c7370e3d8509257bd48fb2611a3e4ff6b",
      "transactionIndex": "0x76",
      "blockHash": "0xc95c80ba057222d09c75d0ada49dd9fff9ceed77d47e3e56ec2484447f26ccbd",
      "blockNumber": "0x6ddd52",
      "gasUsed": "0x16df4",
      "effectiveGasPrice": "0x2b51f40cf",
      "from": "0xeac5f0d4a9a45e1f9fdd0e7e2882e9f60e301156",
      "to": "0x1004c781763c70f5f11aa64b0e5b34e1442a3c02",
      "contractAddress": null
    },
    {
      "status": "0x1",
      "cumulativeGasUsed": "0x1023223",
      "logs": [
        {
          "address": "0x1004c781763c70f5f11aa64b0e5b34e1442a3c02",
          "topics": [
            "0xcb4fd51bf3a0766e39ffe0f81893291c14a84be4b8da0d352df1fee57f19609f",
            "0x0000000000000000000000000000000000000000000000000000000000002715"
          ],
          "data": "0x0000000000000000000000000000000000000000000000000000000000000000000000000000000000000000073b3333f39ea46aea1ca1367ba48f5a2c1f336c",
          "blockHash": "0xc95c80ba057222d09c75d0ada49dd9fff9ceed77d47e3e56ec2484447f26ccbd",
          "blockNumber": "0x6ddd52",
          "transactionHash": "0xfa9af52f2f18f34d0114d77d479132c94385b9afb537885598eb594b0005ceb0",
          "transactionIndex": "0x77",
          "logIndex": "0x36",
          "removed": false
        }
      ],
      "logsBloom": "0x00000000000000000000000000000000000000000000000000000000010000000000800000000000000000000000000000000000000000000000000000000000000000000000000000000000000000000000000000000000000000000000000000000000000000000000000000000000000000008000000000000000000000000000000000000000000000000000000000000100000000000008000000000000000000000000000000000000000000000000000000000000000000000000000000000080000000000000000000000000000000000000000080000020000000000000000000000000000000000000008000000000000000000000000000000000",
      "type": "0x2",
      "transactionHash": "0xfa9af52f2f18f34d0114d77d479132c94385b9afb537885598eb594b0005ceb0",
      "transactionIndex": "0x77",
      "blockHash": "0xc95c80ba057222d09c75d0ada49dd9fff9ceed77d47e3e56ec2484447f26ccbd",
      "blockNumber": "0x6ddd52",
      "gasUsed": "0x16d70",
      "effectiveGasPrice": "0x2b51f40cf",
      "from": "0xeac5f0d4a9a45e1f9fdd0e7e2882e9f60e301156",
      "to": "0x1004c781763c70f5f11aa64b0e5b34e1442a3c02",
      "contractAddress": null
    }
  ],
  "libraries": [],
  "pending": [],
  "returns": {},
  "timestamp": 1733193927,
  "chain": 11155111,
  "commit": "6b21165f"
}