{
  "transactions": [
    {
      "hash": "0xdb9fc5851fdc30880f04b5886bd4b3b2c92561409318959a60b7210c157100fd",
      "transactionType": "CALL",
      "contractName": null,
      "contractAddress": "0xddeb0415ada159ae53d980feb6ff05244f65fd7f",
      "function": "registerSpoke(uint16,bytes32)",
      "arguments": [
        "1",
        "0xabd58849f17e52708082849880f862589c11f972cb372d73b0cd219722cd0f22"
      ],
      "transaction": {
        "from": "0xeac5f0d4a9a45e1f9fdd0e7e2882e9f60e301156",
        "to": "0xddeb0415ada159ae53d980feb6ff05244f65fd7f",
        "gas": "0x1f978",
        "value": "0x0",
        "input": "0xeb1d6b960000000000000000000000000000000000000000000000000000000000000001abd58849f17e52708082849880f862589c11f972cb372d73b0cd219722cd0f22",
        "nonce": "0x1e8",
        "chainId": "0xaa36a7"
      },
      "additionalContracts": [],
      "isFixedGasLimit": false
    },
    {
      "hash": "0x2cd15f2d658abe2d8fafc5215b9c69d53b0ca4976430164fe1254287ed5b705e",
      "transactionType": "CALL",
      "contractName": null,
      "contractAddress": "0xddeb0415ada159ae53d980feb6ff05244f65fd7f",
      "function": "registerSpoke(uint16,bytes32)",
      "arguments": [
        "10005",
        "0x000000000000000000000000767f74378acafdb44c7e2f73f49101ad2c3ed6d2"
      ],
      "transaction": {
        "from": "0xeac5f0d4a9a45e1f9fdd0e7e2882e9f60e301156",
        "to": "0xddeb0415ada159ae53d980feb6ff05244f65fd7f",
        "gas": "0x1f8c2",
        "value": "0x0",
        "input": "0xeb1d6b960000000000000000000000000000000000000000000000000000000000002715000000000000000000000000767f74378acafdb44c7e2f73f49101ad2c3ed6d2",
        "nonce": "0x1e9",
        "chainId": "0xaa36a7"
      },
      "additionalContracts": [],
      "isFixedGasLimit": false
    }
  ],
  "receipts": [
    {
      "status": "0x1",
      "cumulativeGasUsed": "0x12dfe03",
      "logs": [
        {
          "address": "0xddeb0415ada159ae53d980feb6ff05244f65fd7f",
          "topics": [
            "0xcb4fd51bf3a0766e39ffe0f81893291c14a84be4b8da0d352df1fee57f19609f",
            "0x0000000000000000000000000000000000000000000000000000000000000001"
          ],
          "data": "0x0000000000000000000000000000000000000000000000000000000000000000abd58849f17e52708082849880f862589c11f972cb372d73b0cd219722cd0f22",
          "blockHash": "0x7e2c3ed95dd8a48761d73ea26af9074fb36d22e0e243378dbc69f071dd6c5b17",
          "blockNumber": "0x699322",
          "transactionHash": "0xdb9fc5851fdc30880f04b5886bd4b3b2c92561409318959a60b7210c157100fd",
          "transactionIndex": "0x6e",
          "logIndex": "0x47e",
          "removed": false
        }
      ],
      "logsBloom": "0x00000000000000000000000000000000000000000000000000000000000000000000000000000000000000000000000000000000000000000000000000040000000000000000000000000010000000000000000000040000000000000000000000000000000000000000000000000000000000008000000000000000000000000000000000000000000000000000000000000000000000000000000000000000000000000000000000000000000000000000000000000000000000100000000000000080000000000000000000000000000000000000000080000000000040000004000000000000000000000000000000000000000000000000000000000000",
      "type": "0x2",
      "transactionHash": "0xdb9fc5851fdc30880f04b5886bd4b3b2c92561409318959a60b7210c157100fd",
      "transactionIndex": "0x6e",
      "blockHash": "0x7e2c3ed95dd8a48761d73ea26af9074fb36d22e0e243378dbc69f071dd6c5b17",
      "blockNumber": "0x699322",
      "gasUsed": "0x16df4",
      "effectiveGasPrice": "0xabf7f6",
      "from": "0xeac5f0d4a9a45e1f9fdd0e7e2882e9f60e301156",
      "to": "0xddeb0415ada159ae53d980feb6ff05244f65fd7f",
      "contractAddress": null
    },
    {
      "status": "0x1",
      "cumulativeGasUsed": "0x12f6b73",
      "logs": [
        {
          "address": "0xddeb0415ada159ae53d980feb6ff05244f65fd7f",
          "topics": [
            "0xcb4fd51bf3a0766e39ffe0f81893291c14a84be4b8da0d352df1fee57f19609f",
            "0x0000000000000000000000000000000000000000000000000000000000002715"
          ],
          "data": "0x0000000000000000000000000000000000000000000000000000000000000000000000000000000000000000767f74378acafdb44c7e2f73f49101ad2c3ed6d2",
          "blockHash": "0x7e2c3ed95dd8a48761d73ea26af9074fb36d22e0e243378dbc69f071dd6c5b17",
          "blockNumber": "0x699322",
          "transactionHash": "0x2cd15f2d658abe2d8fafc5215b9c69d53b0ca4976430164fe1254287ed5b705e",
          "transactionIndex": "0x6f",
          "logIndex": "0x47f",
          "removed": false
        }
      ],
      "logsBloom": "0x00000000000000000000000000000000000000000000000000000000010000000000800000000000000000000000000000000000000000000000000000000000000000000000000000000010000000000000000000000000000000000000000000000000000000000000000000000000000000008000000000000000000000000000000000000000000000000000000000000000000000000000000000000000000000000000000000000000000000000000000000000000000000100000000000000080000000000000000000000000000000000000000080000000000000000004000000000000000000000000008000000000000000000000000000000000",
      "type": "0x2",
      "transactionHash": "0x2cd15f2d658abe2d8fafc5215b9c69d53b0ca4976430164fe1254287ed5b705e",
      "transactionIndex": "0x6f",
      "blockHash": "0x7e2c3ed95dd8a48761d73ea26af9074fb36d22e0e243378dbc69f071dd6c5b17",
      "blockNumber": "0x699322",
      "gasUsed": "0x16d70",
      "effectiveGasPrice": "0xabf7f6",
      "from": "0xeac5f0d4a9a45e1f9fdd0e7e2882e9f60e301156",
      "to": "0xddeb0415ada159ae53d980feb6ff05244f65fd7f",
      "contractAddress": null
    }
  ],
  "libraries": [],
  "pending": [],
  "returns": {},
  "timestamp": 1729549825,
  "chain": 11155111,
  "commit": "c6578e4"
}