{
  "transactions": [
    {
      "hash": "0x188abb4706636cc7163e0465f96cec16cb7adf18a5cebd736eb28a675ba414ad",
      "transactionType": "CALL",
      "contractName": null,
      "contractAddress": "0x6d87469dc04aec896db03df9b1b9ba29535cc206",
      "function": "registerSpoke(uint16,bytes32)",
      "arguments": [
        "1",
        "0xee7066afc36b670f4b52088b82a96da0ba563335db5ac099786d9f8800ff429e"
      ],
      "transaction": {
        "from": "0x6df497fa3bc0a44f384d099fbbe47304fee4b55b",
        "to": "0x6d87469dc04aec896db03df9b1b9ba29535cc206",
        "gas": "0x1d586",
        "value": "0x0",
        "input": "0xeb1d6b960000000000000000000000000000000000000000000000000000000000000001ee7066afc36b670f4b52088b82a96da0ba563335db5ac099786d9f8800ff429e",
        "nonce": "0x2c",
        "chainId": "0x1"
      },
      "additionalContracts": [],
      "isFixedGasLimit": false
    },
    {
      "hash": "0x64bef02a2820fd61171f66309ffea385cdf9f33234cdc743f5d5b3a50ca47c2c",
      "transactionType": "CALL",
      "contractName": null,
      "contractAddress": "0x6d87469dc04aec896db03df9b1b9ba29535cc206",
      "function": "registerSpoke(uint16,bytes32)",
      "arguments": [
        "24",
        "0x00000000000000000000000075f755950d59d2007a0c90457fdc190732567cc5"
      ],
      "transaction": {
        "from": "0x6df497fa3bc0a44f384d099fbbe47304fee4b55b",
        "to": "0x6d87469dc04aec896db03df9b1b9ba29535cc206",
        "gas": "0x1d4b3",
        "value": "0x0",
        "input": "0xeb1d6b96000000000000000000000000000000000000000000000000000000000000001800000000000000000000000075f755950d59d2007a0c90457fdc190732567cc5",
        "nonce": "0x2d",
        "chainId": "0x1"
      },
      "additionalContracts": [],
      "isFixedGasLimit": false
    },
    {
      "hash": "0x1754f29a907dcc8393e6d620917d770f93e6b8c0f0ca9ff6a16f9fc7c6e4696b",
      "transactionType": "CALL",
      "contractName": null,
      "contractAddress": "0x6d87469dc04aec896db03df9b1b9ba29535cc206",
      "function": "registerSpoke(uint16,bytes32)",
      "arguments": [
        "23",
        "0x0000000000000000000000006defa659a9726925307a45b30ffe2da45ed90811"
      ],
      "transaction": {
        "from": "0x6df497fa3bc0a44f384d099fbbe47304fee4b55b",
        "to": "0x6d87469dc04aec896db03df9b1b9ba29535cc206",
        "gas": "0x1bab9",
        "value": "0x0",
        "input": "0xeb1d6b9600000000000000000000000000000000000000000000000000000000000000170000000000000000000000006defa659a9726925307a45b30ffe2da45ed90811",
        "nonce": "0x2e",
        "chainId": "0x1"
      },
      "additionalContracts": [],
      "isFixedGasLimit": false
    },
    {
      "hash": "0x6e10e116aaafa484bf1d9e2e62eb8491dbbce83195c14ae3ad6830ba74c96bd7",
      "transactionType": "CALL",
      "contractName": null,
      "contractAddress": "0x6d87469dc04aec896db03df9b1b9ba29535cc206",
      "function": "registerSpoke(uint16,bytes32)",
      "arguments": [
        "30",
        "0x00000000000000000000000031ed7eaa0cca7e95a93339843a1c257b87e31e3d"
      ],
      "transaction": {
        "from": "0x6df497fa3bc0a44f384d099fbbe47304fee4b55b",
        "to": "0x6d87469dc04aec896db03df9b1b9ba29535cc206",
        "gas": "0x1bab9",
        "value": "0x0",
        "input": "0xeb1d6b96000000000000000000000000000000000000000000000000000000000000001e00000000000000000000000031ed7eaa0cca7e95a93339843a1c257b87e31e3d",
        "nonce": "0x2f",
        "chainId": "0x1"
      },
      "additionalContracts": [],
      "isFixedGasLimit": false
    }
  ],
  "receipts": [
    {
      "status": "0x1",
      "cumulativeGasUsed": "0xce53cd",
      "logs": [
        {
          "address": "0x6d87469dc04aec896db03df9b1b9ba29535cc206",
          "topics": [
            "0xcb4fd51bf3a0766e39ffe0f81893291c14a84be4b8da0d352df1fee57f19609f",
            "0x0000000000000000000000000000000000000000000000000000000000000001"
          ],
          "data": "0xee7066afc36b670f4b52088b82a96da0ba563335db5ac099786d9f8800ff429eee7066afc36b670f4b52088b82a96da0ba563335db5ac099786d9f8800ff429e",
          "blockHash": "0xe07d852b600bd72614bb3312f59186122670a0ff7c33076db38b6427bd830866",
          "blockNumber": "0x1517d62",
          "blockTimestamp": "0x67e17d53",
          "transactionHash": "0x188abb4706636cc7163e0465f96cec16cb7adf18a5cebd736eb28a675ba414ad",
          "transactionIndex": "0xab",
          "logIndex": "0x161",
          "removed": false
        }
      ],
      "logsBloom": "0x00000000000000000000000000000000000000000000000000000000000000000000000000000000000000000000000000000000000000000000000000040000000000000000000000000000000000000000000000040000000000000000000010000000000000000000000000000000000000008000000000000000000000000000000000000000000000000000000000000000000000000000800000000000000000000000000000000000000000000000000000000000000000000000000000000080000100000000000000000000000000000000000080000000000040000000000000000000000000000000000000000000000000000000000000000000",
      "type": "0x2",
      "transactionHash": "0x188abb4706636cc7163e0465f96cec16cb7adf18a5cebd736eb28a675ba414ad",
      "transactionIndex": "0xab",
      "blockHash": "0xe07d852b600bd72614bb3312f59186122670a0ff7c33076db38b6427bd830866",
      "blockNumber": "0x1517d62",
      "gasUsed": "0x1410b",
      "effectiveGasPrice": "0x3858fbe3",
      "from": "0x6df497fa3bc0a44f384d099fbbe47304fee4b55b",
      "to": "0x6d87469dc04aec896db03df9b1b9ba29535cc206",
      "contractAddress": null
    },
    {
      "status": "0x1",
      "cumulativeGasUsed": "0xcf9448",
      "logs": [
        {
          "address": "0x6d87469dc04aec896db03df9b1b9ba29535cc206",
          "topics": [
            "0xcb4fd51bf3a0766e39ffe0f81893291c14a84be4b8da0d352df1fee57f19609f",
            "0x0000000000000000000000000000000000000000000000000000000000000018"
          ],
          "data": "0x000000000000000000000000b8368afbffb116a71f2060a68e93654ad36ff86900000000000000000000000075f755950d59d2007a0c90457fdc190732567cc5",
          "blockHash": "0xe07d852b600bd72614bb3312f59186122670a0ff7c33076db38b6427bd830866",
          "blockNumber": "0x1517d62",
          "blockTimestamp": "0x67e17d53",
          "transactionHash": "0x64bef02a2820fd61171f66309ffea385cdf9f33234cdc743f5d5b3a50ca47c2c",
          "transactionIndex": "0xac",
          "logIndex": "0x162",
          "removed": false
        }
      ],
      "logsBloom": "0x000000000000000000000000000000000000000000000000000000000000000000000000000000000000000000000000000000000000000000000000000000000000000000000000000000000000000000400000000000000000000000000000100000000000000000000000000000000000000080000000000000000000000000000000000000000000000000000000000000000000000000008000000000000000000000000000000000000000000000000000000000000000000000000000001000800001000000000000000000000000000000000000a0000000000000000000000000000000000000000000000000000000000000000000000000000000",
      "type": "0x2",
      "transactionHash": "0x64bef02a2820fd61171f66309ffea385cdf9f33234cdc743f5d5b3a50ca47c2c",
      "transactionIndex": "0xac",
      "blockHash": "0xe07d852b600bd72614bb3312f59186122670a0ff7c33076db38b6427bd830866",
      "blockNumber": "0x1517d62",
      "gasUsed": "0x1407b",
      "effectiveGasPrice": "0x3858fbe3",
      "from": "0x6df497fa3bc0a44f384d099fbbe47304fee4b55b",
      "to": "0x6d87469dc04aec896db03df9b1b9ba29535cc206",
      "contractAddress": null
    },
    {
      "status": "0x1",
      "cumulativeGasUsed": "0xd0d4cf",
      "logs": [
        {
          "address": "0x6d87469dc04aec896db03df9b1b9ba29535cc206",
          "topics": [
            "0xcb4fd51bf3a0766e39ffe0f81893291c14a84be4b8da0d352df1fee57f19609f",
            "0x0000000000000000000000000000000000000000000000000000000000000017"
          ],
          "data": "0x00000000000000000000000053d1a3f2b71880f8383136f61509ba357b8c14230000000000000000000000006defa659a9726925307a45b30ffe2da45ed90811",
          "blockHash": "0xe07d852b600bd72614bb3312f59186122670a0ff7c33076db38b6427bd830866",
          "blockNumber": "0x1517d62",
          "blockTimestamp": "0x67e17d53",
          "transactionHash": "0x1754f29a907dcc8393e6d620917d770f93e6b8c0f0ca9ff6a16f9fc7c6e4696b",
          "transactionIndex": "0xad",
          "logIndex": "0x163",
          "removed": false
        }
      ],
      "logsBloom": "0x00000000000000000000000000000000000000000000000000000000000000000000000000000000000000000000000000001000000000000000001000000000000000000000000000000000000000000000000000000000000000000000000010000000000000000000000000000000000000008000000000000000000000000000000000000000000000000000000000000000000000000000800000000000000000000000000000000000000000000000000000000000000000000000000000000080000100000000000000000000000000000000000080000000000000000000000000000000000000000000000000000000000000000000000000080000",
      "type": "0x2",
      "transactionHash": "0x1754f29a907dcc8393e6d620917d770f93e6b8c0f0ca9ff6a16f9fc7c6e4696b",
      "transactionIndex": "0xad",
      "blockHash": "0xe07d852b600bd72614bb3312f59186122670a0ff7c33076db38b6427bd830866",
      "blockNumber": "0x1517d62",
      "gasUsed": "0x14087",
      "effectiveGasPrice": "0x3858fbe3",
      "from": "0x6df497fa3bc0a44f384d099fbbe47304fee4b55b",
      "to": "0x6d87469dc04aec896db03df9b1b9ba29535cc206",
      "contractAddress": null
    },
    {
      "status": "0x1",
      "cumulativeGasUsed": "0xd21556",
      "logs": [
        {
          "address": "0x6d87469dc04aec896db03df9b1b9ba29535cc206",
          "topics": [
            "0xcb4fd51bf3a0766e39ffe0f81893291c14a84be4b8da0d352df1fee57f19609f",
            "0x000000000000000000000000000000000000000000000000000000000000001e"
          ],
          "data": "0x000000000000000000000000fd59ef4f3e779cb6c0f7256205cf258318df451900000000000000000000000031ed7eaa0cca7e95a93339843a1c257b87e31e3d",
          "blockHash": "0xe07d852b600bd72614bb3312f59186122670a0ff7c33076db38b6427bd830866",
          "blockNumber": "0x1517d62",
          "blockTimestamp": "0x67e17d53",
          "transactionHash": "0x6e10e116aaafa484bf1d9e2e62eb8491dbbce83195c14ae3ad6830ba74c96bd7",
          "transactionIndex": "0xae",
          "logIndex": "0x164",
          "removed": false
        }
      ],
      "logsBloom": "0x00000000000000000000000000000000000000000000000000000000000000000000000000000000000000000400000000000000000000000000000000000000000000000000008000000000000000000000000000000000000000000000000010000000000000000000000000000000000000008000000000000000000000000000000000000000000000000000000000000000000000000000800000000000000000000000000000000000000000000000000000000000000000000000000000000080000100000000000000000000000000000000000080000000000000000000000000000000080000000000000000000000000000000000000000000000",
      "type": "0x2",
      "transactionHash": "0x6e10e116aaafa484bf1d9e2e62eb8491dbbce83195c14ae3ad6830ba74c96bd7",
      "transactionIndex": "0xae",
      "blockHash": "0xe07d852b600bd72614bb3312f59186122670a0ff7c33076db38b6427bd830866",
      "blockNumber": "0x1517d62",
      "gasUsed": "0x14087",
      "effectiveGasPrice": "0x3858fbe3",
      "from": "0x6df497fa3bc0a44f384d099fbbe47304fee4b55b",
      "to": "0x6d87469dc04aec896db03df9b1b9ba29535cc206",
      "contractAddress": null
    }
  ],
  "libraries": [],
  "pending": [],
  "returns": {},
  "timestamp": 1742830934,
  "chain": 1,
  "commit": "d8a56470"
}