{
  "transactions": [
    {
      "hash": "0x2293f7bd5101509bec77442a97f368d04f3015a00e49a5d8d1ad69a02eac46bb",
      "transactionType": "CALL",
      "contractName": null,
      "contractAddress": "0x6d87469dc04aec896db03df9b1b9ba29535cc206",
      "function": "registerSpoke(uint16,bytes32)",
      "arguments": [
        "1",
        "0xee7066afc36b670f4b52088b82a96da0ba563335db5ac099786d9f8800ff429e"
      ],
      "transaction": {
        "from": "0x6df497fa3bc0a44f384d099fbbe47304fee4b55b",
        "to": "0x6d87469dc04aec896db03df9b1b9ba29535cc206",
        "gas": "0x1d586",
        "value": "0x0",
        "input": "0xeb1d6b960000000000000000000000000000000000000000000000000000000000000001ee7066afc36b670f4b52088b82a96da0ba563335db5ac099786d9f8800ff429e",
        "nonce": "0x26",
        "chainId": "0x1"
      },
      "additionalContracts": [],
      "isFixedGasLimit": false
    },
    {
      "hash": "0x7d009223dff2db029f590f11b6c446d6021e383a46e6d99689fbccf3294d217f",
      "transactionType": "CALL",
      "contractName": null,
      "contractAddress": "0x6d87469dc04aec896db03df9b1b9ba29535cc206",
      "function": "registerSpoke(uint16,bytes32)",
      "arguments": [
        "24",
        "0x000000000000000000000000b8368afbffb116a71f2060a68e93654ad36ff869"
      ],
      "transaction": {
        "from": "0x6df497fa3bc0a44f384d099fbbe47304fee4b55b",
        "to": "0x6d87469dc04aec896db03df9b1b9ba29535cc206",
        "gas": "0x1bab9",
        "value": "0x0",
        "input": "0xeb1d6b960000000000000000000000000000000000000000000000000000000000000018000000000000000000000000b8368afbffb116a71f2060a68e93654ad36ff869",
        "nonce": "0x27",
        "chainId": "0x1"
      },
      "additionalContracts": [],
      "isFixedGasLimit": false
    },
    {
      "hash": "0x9c7e1d8c68b03ee97f1cb26403fa1c0173390298341fe16ab5c7a71410eb0f8f",
      "transactionType": "CALL",
      "contractName": null,
      "contractAddress": "0x6d87469dc04aec896db03df9b1b9ba29535cc206",
      "function": "registerSpoke(uint16,bytes32)",
      "arguments": [
        "23",
        "0x00000000000000000000000053d1a3f2b71880f8383136f61509ba357b8c1423"
      ],
      "transaction": {
        "from": "0x6df497fa3bc0a44f384d099fbbe47304fee4b55b",
        "to": "0x6d87469dc04aec896db03df9b1b9ba29535cc206",
        "gas": "0x1bab9",
        "value": "0x0",
        "input": "0xeb1d6b96000000000000000000000000000000000000000000000000000000000000001700000000000000000000000053d1a3f2b71880f8383136f61509ba357b8c1423",
        "nonce": "0x28",
        "chainId": "0x1"
      },
      "additionalContracts": [],
      "isFixedGasLimit": false
    },
    {
      "hash": "0xecc1b366bdca3a6357d5b30dd18108654a184c49c1de9bc7d6b74317bca6d722",
      "transactionType": "CALL",
      "contractName": null,
      "contractAddress": "0x6d87469dc04aec896db03df9b1b9ba29535cc206",
      "function": "registerSpoke(uint16,bytes32)",
      "arguments": [
        "30",
        "0x000000000000000000000000fd59ef4f3e779cb6c0f7256205cf258318df4519"
      ],
      "transaction": {
        "from": "0x6df497fa3bc0a44f384d099fbbe47304fee4b55b",
        "to": "0x6d87469dc04aec896db03df9b1b9ba29535cc206",
        "gas": "0x1bab9",
        "value": "0x0",
        "input": "0xeb1d6b96000000000000000000000000000000000000000000000000000000000000001e000000000000000000000000fd59ef4f3e779cb6c0f7256205cf258318df4519",
        "nonce": "0x29",
        "chainId": "0x1"
      },
      "additionalContracts": [],
      "isFixedGasLimit": false
    }
  ],
  "receipts": [
    {
      "status": "0x1",
      "cumulativeGasUsed": "0xadfba3",
      "logs": [
        {
          "address": "0x6d87469dc04aec896db03df9b1b9ba29535cc206",
          "topics": [
            "0xcb4fd51bf3a0766e39ffe0f81893291c14a84be4b8da0d352df1fee57f19609f",
            "0x0000000000000000000000000000000000000000000000000000000000000001"
          ],
          "data": "0xee7066afc36b670f4b52088b82a96da0ba563335db5ac099786d9f8800ff429eee7066afc36b670f4b52088b82a96da0ba563335db5ac099786d9f8800ff429e",
          "blockHash": "0xe859c0c277a3085d4b7b096187d21cbf0794a525b0af1aa8daba12628f3fe44a",
          "blockNumber": "0x150bd60",
          "blockTimestamp": "0x67d8722b",
          "transactionHash": "0x2293f7bd5101509bec77442a97f368d04f3015a00e49a5d8d1ad69a02eac46bb",
          "transactionIndex": "0x9f",
          "logIndex": "0x116",
          "removed": false
        }
      ],
      "logsBloom": "0x00000000000000000000000000000000000000000000000000000000000000000000000000000000000000000000000000000000000000000000000000040000000000000000000000000000000000000000000000040000000000000000000010000000000000000000000000000000000000008000000000000000000000000000000000000000000000000000000000000000000000000000800000000000000000000000000000000000000000000000000000000000000000000000000000000080000100000000000000000000000000000000000080000000000040000000000000000000000000000000000000000000000000000000000000000000",
      "type": "0x2",
      "transactionHash": "0x2293f7bd5101509bec77442a97f368d04f3015a00e49a5d8d1ad69a02eac46bb",
      "transactionIndex": "0x9f",
      "blockHash": "0xe859c0c277a3085d4b7b096187d21cbf0794a525b0af1aa8daba12628f3fe44a",
      "blockNumber": "0x150bd60",
      "gasUsed": "0x1410b",
      "effectiveGasPrice": "0x6f50d014",
      "from": "0x6df497fa3bc0a44f384d099fbbe47304fee4b55b",
      "to": "0x6d87469dc04aec896db03df9b1b9ba29535cc206",
      "contractAddress": null
    },
    {
      "status": "0x1",
      "cumulativeGasUsed": "0x43ea6a",
      "logs": [
        {
          "address": "0x6d87469dc04aec896db03df9b1b9ba29535cc206",
          "topics": [
            "0xcb4fd51bf3a0766e39ffe0f81893291c14a84be4b8da0d352df1fee57f19609f",
            "0x0000000000000000000000000000000000000000000000000000000000000018"
          ],
          "data": "0x000000000000000000000000557133fb5451ab1cb83fa271fc044eebea8faae2000000000000000000000000b8368afbffb116a71f2060a68e93654ad36ff869",
          "blockHash": "0xd75a8d8ee52593f9daffa8294b114dcbb3edfc13d8a3481d20a7aaef032973ff",
          "blockNumber": "0x150bd61",
          "blockTimestamp": "0x67d87237",
          "transactionHash": "0x7d009223dff2db029f590f11b6c446d6021e383a46e6d99689fbccf3294d217f",
          "transactionIndex": "0x5b",
          "logIndex": "0x44",
          "removed": false
        }
      ],
      "logsBloom": "0x000000000000000000000000000000000000000000000000000000000000000000000000000000000000000000000000000000000000000000000000000000000000000000000000000000000000000000400000000000000000000000000000100000000000000000000000000000000000000080000000000000000000000000000000000000000000000000000000000000000000000000008000000000000000000000000000000000000000000000000000000000000000000000000000001000800001000000000000000000000000000000000000a0000000000000000000000000000000000000000000000000000000000000000000000000000000",
      "type": "0x2",
      "transactionHash": "0x7d009223dff2db029f590f11b6c446d6021e383a46e6d99689fbccf3294d217f",
      "transactionIndex": "0x5b",
      "blockHash": "0xd75a8d8ee52593f9daffa8294b114dcbb3edfc13d8a3481d20a7aaef032973ff",
      "blockNumber": "0x150bd61",
      "gasUsed": "0x14087",
      "effectiveGasPrice": "0x6d092399",
      "from": "0x6df497fa3bc0a44f384d099fbbe47304fee4b55b",
      "to": "0x6d87469dc04aec896db03df9b1b9ba29535cc206",
      "contractAddress": null
    },
    {
      "status": "0x1",
      "cumulativeGasUsed": "0x452af1",
      "logs": [
        {
          "address": "0x6d87469dc04aec896db03df9b1b9ba29535cc206",
          "topics": [
            "0xcb4fd51bf3a0766e39ffe0f81893291c14a84be4b8da0d352df1fee57f19609f",
            "0x0000000000000000000000000000000000000000000000000000000000000017"
          ],
          "data": "0x00000000000000000000000087d07772c1150a0e62c1d9171adaf4c1f17888eb00000000000000000000000053d1a3f2b71880f8383136f61509ba357b8c1423",
          "blockHash": "0xd75a8d8ee52593f9daffa8294b114dcbb3edfc13d8a3481d20a7aaef032973ff",
          "blockNumber": "0x150bd61",
          "blockTimestamp": "0x67d87237",
          "transactionHash": "0x9c7e1d8c68b03ee97f1cb26403fa1c0173390298341fe16ab5c7a71410eb0f8f",
          "transactionIndex": "0x5c",
          "logIndex": "0x45",
          "removed": false
        }
      ],
      "logsBloom": "0x00000000000000000000000000000000000000000000000000000000000000000000000000000000000000000000000000001000000000000000001000000000000000000000000000000000000000000000000000000000000000000000000010000000000000000000000000000000000000008000000000000000000000000000000000000000000000000000000000000000000000000000800000000000000000000000000000000000000000000000000000000000000000000000000000000080000100000000000000000000000000000000000080000000000000000000000000000000000000000000000000000000000000000000000000080000",
      "type": "0x2",
      "transactionHash": "0x9c7e1d8c68b03ee97f1cb26403fa1c0173390298341fe16ab5c7a71410eb0f8f",
      "transactionIndex": "0x5c",
      "blockHash": "0xd75a8d8ee52593f9daffa8294b114dcbb3edfc13d8a3481d20a7aaef032973ff",
      "blockNumber": "0x150bd61",
      "gasUsed": "0x14087",
      "effectiveGasPrice": "0x6d092399",
      "from": "0x6df497fa3bc0a44f384d099fbbe47304fee4b55b",
      "to": "0x6d87469dc04aec896db03df9b1b9ba29535cc206",
      "contractAddress": null
    },
    {
      "status": "0x1",
      "cumulativeGasUsed": "0x460069",
      "logs": [
        {
          "address": "0x6d87469dc04aec896db03df9b1b9ba29535cc206",
          "topics": [
            "0xcb4fd51bf3a0766e39ffe0f81893291c14a84be4b8da0d352df1fee57f19609f",
            "0x000000000000000000000000000000000000000000000000000000000000001e"
          ],
          "data": "0x000000000000000000000000dcd97449bfd93c554e06c4b0212a9faf66d9ea3e000000000000000000000000fd59ef4f3e779cb6c0f7256205cf258318df4519",
          "blockHash": "0xca31c7d689da0dd1fa2915dbe1893c2f480221ba23bfdc731d24c0478123eb27",
          "blockNumber": "0x150bd62",
          "blockTimestamp": "0x67d87243",
          "transactionHash": "0xecc1b366bdca3a6357d5b30dd18108654a184c49c1de9bc7d6b74317bca6d722",
          "transactionIndex": "0x16",
          "logIndex": "0xaa",
          "removed": false
        }
      ],
      "logsBloom": "0x00000000000000000000000000000000000000000000000000000000000000000000000000000000000000000400000000000000000000000000000000000000000000000000008000000000000000000000000000000000000000000000000010000000000000000000000000000000000000008000000000000000000000000000000000000000000000000000000000000000000000000000800000000000000000000000000000000000000000000000000000000000000000000000000000000080000100000000000000000000000000000000000080000000000000000000000000000000080000000000000000000000000000000000000000000000",
      "type": "0x2",
      "transactionHash": "0xecc1b366bdca3a6357d5b30dd18108654a184c49c1de9bc7d6b74317bca6d722",
      "transactionIndex": "0x16",
      "blockHash": "0xca31c7d689da0dd1fa2915dbe1893c2f480221ba23bfdc731d24c0478123eb27",
      "blockNumber": "0x150bd62",
      "gasUsed": "0x14087",
      "effectiveGasPrice": "0x63bcd998",
      "from": "0x6df497fa3bc0a44f384d099fbbe47304fee4b55b",
      "to": "0x6d87469dc04aec896db03df9b1b9ba29535cc206",
      "contractAddress": null
    }
  ],
  "libraries": [],
  "pending": [],
  "returns": {},
  "timestamp": 1742238278,
  "chain": 1,
  "commit": "d3525065"
}