{
  "transactions": [
    {
      "hash": "0x800047688be07a553c61f0dd1e5c06c0ba9aed71d2faa2d7fe9a9ee492650afd",
      "transactionType": "CALL",
      "contractName": null,
      "contractAddress": "0x6d87469dc04aec896db03df9b1b9ba29535cc206",
      "function": "registerSpoke(uint16,bytes32)",
      "arguments": [
        "1",
        "0xee7066afc36b670f4b52088b82a96da0ba563335db5ac099786d9f8800ff429e"
      ],
      "transaction": {
        "from": "0x6df497fa3bc0a44f384d099fbbe47304fee4b55b",
        "to": "0x6d87469dc04aec896db03df9b1b9ba29535cc206",
        "gas": "0x1f967",
        "value": "0x0",
        "input": "0xeb1d6b960000000000000000000000000000000000000000000000000000000000000001ee7066afc36b670f4b52088b82a96da0ba563335db5ac099786d9f8800ff429e",
        "nonce": "0x1b",
        "chainId": "0x1"
      },
      "additionalContracts": [],
      "isFixedGasLimit": false
    },
    {
      "hash": "0xb4bd0bc198cc2fc817579586b6e266ba73ecec27e0b18137a925dd8fed9662e7",
      "transactionType": "CALL",
      "contractName": null,
      "contractAddress": "0x6d87469dc04aec896db03df9b1b9ba29535cc206",
      "function": "registerSpoke(uint16,bytes32)",
      "arguments": [
        "24",
        "0x000000000000000000000000557133fb5451ab1cb83fa271fc044eebea8faae2"
      ],
      "transaction": {
        "from": "0x6df497fa3bc0a44f384d099fbbe47304fee4b55b",
        "to": "0x6d87469dc04aec896db03df9b1b9ba29535cc206",
        "gas": "0x1f8b1",
        "value": "0x0",
        "input": "0xeb1d6b960000000000000000000000000000000000000000000000000000000000000018000000000000000000000000557133fb5451ab1cb83fa271fc044eebea8faae2",
        "nonce": "0x1c",
        "chainId": "0x1"
      },
      "additionalContracts": [],
      "isFixedGasLimit": false
    },
    {
      "hash": "0xa077b833401567f4441c269eab3f1178a56b5a1e241b7b9afa575e45c36ccab7",
      "transactionType": "CALL",
      "contractName": null,
      "contractAddress": "0x6d87469dc04aec896db03df9b1b9ba29535cc206",
      "function": "registerSpoke(uint16,bytes32)",
      "arguments": [
        "23",
        "0x00000000000000000000000087d07772c1150a0e62c1d9171adaf4c1f17888eb"
      ],
      "transaction": {
        "from": "0x6df497fa3bc0a44f384d099fbbe47304fee4b55b",
        "to": "0x6d87469dc04aec896db03df9b1b9ba29535cc206",
        "gas": "0x1f8b1",
        "value": "0x0",
        "input": "0xeb1d6b96000000000000000000000000000000000000000000000000000000000000001700000000000000000000000087d07772c1150a0e62c1d9171adaf4c1f17888eb",
        "nonce": "0x1d",
        "chainId": "0x1"
      },
      "additionalContracts": [],
      "isFixedGasLimit": false
    },
    {
      "hash": "0x3361986ee5c94b299d28b7f45013f3a23ff2f9d50c67d8ebbf6a9b8d2fb9a2f3",
      "transactionType": "CALL",
      "contractName": null,
      "contractAddress": "0x6d87469dc04aec896db03df9b1b9ba29535cc206",
      "function": "registerSpoke(uint16,bytes32)",
      "arguments": [
        "30",
        "0x000000000000000000000000dcd97449bfd93c554e06c4b0212a9faf66d9ea3e"
      ],
      "transaction": {
        "from": "0x6df497fa3bc0a44f384d099fbbe47304fee4b55b",
        "to": "0x6d87469dc04aec896db03df9b1b9ba29535cc206",
        "gas": "0x1f8b1",
        "value": "0x0",
        "input": "0xeb1d6b96000000000000000000000000000000000000000000000000000000000000001e000000000000000000000000dcd97449bfd93c554e06c4b0212a9faf66d9ea3e",
        "nonce": "0x1e",
        "chainId": "0x1"
      },
      "additionalContracts": [],
      "isFixedGasLimit": false
    }
  ],
  "receipts": [
    {
      "status": "0x1",
      "cumulativeGasUsed": "0x4e4761",
      "logs": [
        {
          "address": "0x6d87469dc04aec896db03df9b1b9ba29535cc206",
          "topics": [
            "0xcb4fd51bf3a0766e39ffe0f81893291c14a84be4b8da0d352df1fee57f19609f",
            "0x0000000000000000000000000000000000000000000000000000000000000001"
          ],
          "data": "0x0000000000000000000000000000000000000000000000000000000000000000ee7066afc36b670f4b52088b82a96da0ba563335db5ac099786d9f8800ff429e",
          "blockHash": "0x3e1e1a78af10a08c184c6373cae18cfaec2ed520b4dbab0b59338b100deab397",
          "blockNumber": "0x1506890",
          "blockTimestamp": "0x67d4734f",
          "transactionHash": "0x800047688be07a553c61f0dd1e5c06c0ba9aed71d2faa2d7fe9a9ee492650afd",
          "transactionIndex": "0x53",
          "logIndex": "0x72",
          "removed": false
        }
      ],
      "logsBloom": "0x00000000000000000000000000000000000000000000000000000000000000000000000000000000000000000000000000000000000000000000000000040000000000000000000000000000000000000000000000040000000000000000000010000000000000000000000000000000000000008000000000000000000000000000000000000000000000000000000000000000000000000000800000000000000000000000000000000000000000000000000000000000000000000000000000000080000100000000000000000000000000000000000080000000000040000000000000000000000000000000000000000000000000000000000000000000",
      "type": "0x2",
      "transactionHash": "0x800047688be07a553c61f0dd1e5c06c0ba9aed71d2faa2d7fe9a9ee492650afd",
      "transactionIndex": "0x53",
      "blockHash": "0x3e1e1a78af10a08c184c6373cae18cfaec2ed520b4dbab0b59338b100deab397",
      "blockNumber": "0x1506890",
      "gasUsed": "0x16de8",
      "effectiveGasPrice": "0x21386478",
      "from": "0x6df497fa3bc0a44f384d099fbbe47304fee4b55b",
      "to": "0x6d87469dc04aec896db03df9b1b9ba29535cc206",
      "contractAddress": null
    },
    {
      "status": "0x1",
      "cumulativeGasUsed": "0x4fb4c5",
      "logs": [
        {
          "address": "0x6d87469dc04aec896db03df9b1b9ba29535cc206",
          "topics": [
            "0xcb4fd51bf3a0766e39ffe0f81893291c14a84be4b8da0d352df1fee57f19609f",
            "0x0000000000000000000000000000000000000000000000000000000000000018"
          ],
          "data": "0x0000000000000000000000000000000000000000000000000000000000000000000000000000000000000000557133fb5451ab1cb83fa271fc044eebea8faae2",
          "blockHash": "0x3e1e1a78af10a08c184c6373cae18cfaec2ed520b4dbab0b59338b100deab397",
          "blockNumber": "0x1506890",
          "blockTimestamp": "0x67d4734f",
          "transactionHash": "0xb4bd0bc198cc2fc817579586b6e266ba73ecec27e0b18137a925dd8fed9662e7",
          "transactionIndex": "0x54",
          "logIndex": "0x73",
          "removed": false
        }
      ],
      "logsBloom": "0x000000000000000000000000000000000000000000000000000000000000000000000000000000000000000000000000000000000000000000000000000000000000000000000000000000000000000000400000000000000000000000000000100000000000000000000000000000000000000080000000000000000000000000000000000000000000000000000000000000000000000000008000000000000000000000000000000000000000000000000000000000000000000000000000001000800001000000000000000000000000000000000000a0000000000000000000000000000000000000000000000000000000000000000000000000000000",
      "type": "0x2",
      "transactionHash": "0xb4bd0bc198cc2fc817579586b6e266ba73ecec27e0b18137a925dd8fed9662e7",
      "transactionIndex": "0x54",
      "blockHash": "0x3e1e1a78af10a08c184c6373cae18cfaec2ed520b4dbab0b59338b100deab397",
      "blockNumber": "0x1506890",
      "gasUsed": "0x16d64",
      "effectiveGasPrice": "0x21386478",
      "from": "0x6df497fa3bc0a44f384d099fbbe47304fee4b55b",
      "to": "0x6d87469dc04aec896db03df9b1b9ba29535cc206",
      "contractAddress": null
    },
    {
      "status": "0x1",
      "cumulativeGasUsed": "0x97f9bc",
      "logs": [
        {
          "address": "0x6d87469dc04aec896db03df9b1b9ba29535cc206",
          "topics": [
            "0xcb4fd51bf3a0766e39ffe0f81893291c14a84be4b8da0d352df1fee57f19609f",
            "0x0000000000000000000000000000000000000000000000000000000000000017"
          ],
          "data": "0x000000000000000000000000000000000000000000000000000000000000000000000000000000000000000087d07772c1150a0e62c1d9171adaf4c1f17888eb",
          "blockHash": "0x4981c82138ecd5d6752348851b557982aa2d5ee644405d61e71b36ec6a35dce3",
          "blockNumber": "0x1506892",
          "blockTimestamp": "0x67d47367",
          "transactionHash": "0xa077b833401567f4441c269eab3f1178a56b5a1e241b7b9afa575e45c36ccab7",
          "transactionIndex": "0x8d",
          "logIndex": "0x102",
          "removed": false
        }
      ],
      "logsBloom": "0x00000000000000000000000000000000000000000000000000000000000000000000000000000000000000000000000000001000000000000000001000000000000000000000000000000000000000000000000000000000000000000000000010000000000000000000000000000000000000008000000000000000000000000000000000000000000000000000000000000000000000000000800000000000000000000000000000000000000000000000000000000000000000000000000000000080000100000000000000000000000000000000000080000000000000000000000000000000000000000000000000000000000000000000000000080000",
      "type": "0x2",
      "transactionHash": "0xa077b833401567f4441c269eab3f1178a56b5a1e241b7b9afa575e45c36ccab7",
      "transactionIndex": "0x8d",
      "blockHash": "0x4981c82138ecd5d6752348851b557982aa2d5ee644405d61e71b36ec6a35dce3",
      "blockNumber": "0x1506892",
      "gasUsed": "0x16d64",
      "effectiveGasPrice": "0x1ff5804e",
      "from": "0x6df497fa3bc0a44f384d099fbbe47304fee4b55b",
      "to": "0x6d87469dc04aec896db03df9b1b9ba29535cc206",
      "contractAddress": null
    },
    {
      "status": "0x1",
      "cumulativeGasUsed": "0x996720",
      "logs": [
        {
          "address": "0x6d87469dc04aec896db03df9b1b9ba29535cc206",
          "topics": [
            "0xcb4fd51bf3a0766e39ffe0f81893291c14a84be4b8da0d352df1fee57f19609f",
            "0x000000000000000000000000000000000000000000000000000000000000001e"
          ],
          "data": "0x0000000000000000000000000000000000000000000000000000000000000000000000000000000000000000dcd97449bfd93c554e06c4b0212a9faf66d9ea3e",
          "blockHash": "0x4981c82138ecd5d6752348851b557982aa2d5ee644405d61e71b36ec6a35dce3",
          "blockNumber": "0x1506892",
          "blockTimestamp": "0x67d47367",
          "transactionHash": "0x3361986ee5c94b299d28b7f45013f3a23ff2f9d50c67d8ebbf6a9b8d2fb9a2f3",
          "transactionIndex": "0x8e",
          "logIndex": "0x103",
          "removed": false
        }
      ],
      "logsBloom": "0x00000000000000000000000000000000000000000000000000000000000000000000000000000000000000000400000000000000000000000000000000000000000000000000008000000000000000000000000000000000000000000000000010000000000000000000000000000000000000008000000000000000000000000000000000000000000000000000000000000000000000000000800000000000000000000000000000000000000000000000000000000000000000000000000000000080000100000000000000000000000000000000000080000000000000000000000000000000080000000000000000000000000000000000000000000000",
      "type": "0x2",
      "transactionHash": "0x3361986ee5c94b299d28b7f45013f3a23ff2f9d50c67d8ebbf6a9b8d2fb9a2f3",
      "transactionIndex": "0x8e",
      "blockHash": "0x4981c82138ecd5d6752348851b557982aa2d5ee644405d61e71b36ec6a35dce3",
      "blockNumber": "0x1506892",
      "gasUsed": "0x16d64",
      "effectiveGasPrice": "0x1ff5804e",
      "from": "0x6df497fa3bc0a44f384d099fbbe47304fee4b55b",
      "to": "0x6d87469dc04aec896db03df9b1b9ba29535cc206",
      "contractAddress": null
    }
  ],
  "libraries": [],
  "pending": [],
  "returns": {},
  "timestamp": 1741976425,
  "chain": 1,
  "commit": "fcbbeeed"
}