{
  "transactions": [
    {
      "hash": "0x77068a365be38cec67b2ad6f22cd6934515a8e062493cf84fbb71f633090140c",
      "transactionType": "CALL",
      "contractName": null,
      "contractAddress": "0x12fb7f85dea3a3f83018e4a647dc8b0456df9b39",
      "function": "mint(address,uint256)",
      "arguments": [
        "0xf87C6e6C67279B5c5D61797d2700bA8a1b4cd556",
        "10000000000000000000000000"
      ],
      "transaction": {
        "from": "0x9836c4edd97fec117bfb5a33ab46ef8dd965ad1c",
        "to": "0x12fb7f85dea3a3f83018e4a647dc8b0456df9b39",
        "gas": "0x27bd8",
        "value": "0x0",
        "input": "0x40c10f19000000000000000000000000f87c6e6c67279b5c5d61797d2700ba8a1b4cd556000000000000000000000000000000000000000000084595161401484a000000",
        "nonce": "0xb",
        "chainId": "0x14a34"
      },
      "additionalContracts": [],
      "isFixedGasLimit": false
    }
  ],
  "receipts": [
    {
      "status": "0x1",
      "cumulativeGasUsed": "0x42d477",
      "logs": [
        {
          "address": "0x12fb7f85dea3a3f83018e4a647dc8b0456df9b39",
          "topics": [
            "0xddf252ad1be2c89b69c2b068fc378daa952ba7f163c4a11628f55a4df523b3ef",
            "0x0000000000000000000000000000000000000000000000000000000000000000",
            "0x000000000000000000000000f87c6e6c67279b5c5d61797d2700ba8a1b4cd556"
          ],
          "data": "0x000000000000000000000000000000000000000000084595161401484a000000",
          "blockHash": "0x3e7ab14b25ffd4b554b597c8e0b5c28aab75631eeabacfbe9b052dfe4365e19f",
          "blockNumber": "0x14c2225",
          "transactionHash": "0x77068a365be38cec67b2ad6f22cd6934515a8e062493cf84fbb71f633090140c",
          "transactionIndex": "0x20",
          "logIndex": "0x5a",
          "removed": false
        }
      ],
      "logsBloom": "0x00000000000000000000000000000000000000000000000000000000000000000000000000000000000000000000000000000000000000000000000004000000000000000000000000000008000000000000000000000000000000000000000000000000020000000000000000000800000000000000000000000010000002000000000000000080000000000000000000000000000000000000000000000000000000000000000000000000000000000000000000000100000000000000000000000002000000000000000100000000000000000000000000000000000020000000008000000000000000000000000000000000000000000000000000000000",
      "type": "0x2",
      "transactionHash": "0x77068a365be38cec67b2ad6f22cd6934515a8e062493cf84fbb71f633090140c",
      "transactionIndex": "0x20",
      "blockHash": "0x3e7ab14b25ffd4b554b597c8e0b5c28aab75631eeabacfbe9b052dfe4365e19f",
      "blockNumber": "0x14c2225",
      "gasUsed": "0x1cc58",
      "effectiveGasPrice": "0xece77",
      "from": "0x9836c4edd97fec117bfb5a33ab46ef8dd965ad1c",
      "to": "0x12fb7f85dea3a3f83018e4a647dc8b0456df9b39",
      "contractAddress": null,
      "l1BaseFeeScalar": "0x44d",
      "l1BlobBaseFee": "0x1",
      "l1BlobBaseFeeScalar": "0xa118b",
      "l1Fee": "0xf8a32cd9",
      "l1GasPrice": "0x8d249792",
      "l1GasUsed": "0x640"
    }
  ],
  "libraries": [],
  "pending": [],
  "returns": {},
  "timestamp": 1739301675,
  "chain": 84532,
  "commit": "52a21908"
}